S02B00004D6963726F20636F6E74726F6C6C6572732065696E646F7064726163687420576966692E7372656364
S113000045C0000087C0000094C0000054C0000038
S113001052C0000050C000004EC000004CC00000A0
S11300204AC0000048C0000046C0000044C00000B0
S113003042C0000040C000003EC000003CC00000C0
S11300403AC0000038C0000036C0000034C00000D0
S113005032C0000030C000002EC000002CC00000E0
S11300602AC0000028C0000026C0000024C00000F0
S113007022C0000020C000001EC000001CC0000000
S11300801AC0000018C0000016C0000011241FBED2
S1130090CFEFD0E1DEBFCDBF12E0A0E0B1E0E8EFEA
S11300A0FAE000E00BBF02C007900D92A837B10739
S11300B0D9F7B2D01FC5A4CFAB9A8FEC97E00197C4
S11300C0F1F700C00000AB988FEC97E00197F1F7CF
S11300D000C000000895CF93C82F807F85BBECDF5C
S11300E020E1C29FC001112485BBE6DFCF910895B2
S11300F08FEF84BB15BA80E285BB85B382BBDCDF9E
S113010088E2E9DF8CE0E7DF81E0E5DF82E0E3DF3E
S113011015BA08951F920F920FB60F9211248F9360
S113012081E080931F018F910F900FBE0F901F905D
S113013018951F920F920FB60F92112410921F015F
S11301400F900FBE0F901F90189511BA83E082BBD9
S11301509FE090936A0089BF78940895EF92FF928C
S11301600F931F93CF93DF93CDB7DEB7DA950FB616
S1130170F894DEBF0FBECDBF7B019F938F9380E2C7
S113018091E09F938F935F934F9385E291E09F93C8
S11301908F9386E391E09F938F938EE491E09F93F6
S11301A08F9389E691E09F938F9386E791E09F93E5
S11301B08F938DE791E09F938F938EE991E09F93C6
S11301C08F9387EB91E09F938F9383EC91E09F93C0
S11301D08F938DED91E09F938F9382EE91E09F93A7
S11301E08F938E010F5F1F4F1F930F93A8D1B801F8
S11301F0C7019ED10FB6F894DEBF0FBECDBFD39515
S11302000FB6F894DEBF0FBECDBFDF91CF911F9123
S11302100F91FF90EF900895CF93DF93CDB7DEB7A2
S1130220DA950FB6F894DEBF0FBECDBF61DFA8D05C
S11302306DEF71E087E092E0AFD087DFE0E1F1E0BD
S113024001900020E9F73197AF0140515140BE01C0
S11302506F5F7F4F80E191E081DF02E00F2EF0E0DD
S1130260CF2EF1E0DF2EF02DCE0101967C010F2E72
S1130270F0E1AF2EF1E0BF2EF02DF89410911F01A4
S113028000931F017894123099F160E570E089E6DB
S113029091E0C0D01130B1F4F50101900020E9F7EC
S11302A03197AF0140515140B701C50157DFF70104
S11302B001900020E9F73197BF016E197F09C7014A
S11302C0DCD015C0F60101900020E9F73197AF01A9
S11302D040505140B701C60141DFF70101900020B1
S11302E0E9F73197BF016E197F09C701C6D011D153
S11302F085B7806285BF889585B78F7D85BFBDCF63
S1130300181619066CF420E030E0EFECF7E03197B2
S1130310F1F700C000002F5F3F4F82179307A9F742
S113032008955D9BFECF8CB908950F931F93CF93CF
S1130330DF9300D000D01F92CDB7DEB785E0EDE1AA
S1130340F2E0DE01119601900D928A95E1F7898120
S1130350882349F08E010E5F1F4FE3DFF80181917E
S11303608F018111FACF88EE93E0CADF0F900F90CE
S11303700F900F900F90DF91CF911F910F910895DF
S11303801092900083E389B986E0809395008CE015
S11303908AB91BB8CACF08950F931F93CF93DF93E5
S11303A0CDB7DEB7C055D1090FB6F894DEBF0FBE86
S11303B0CDBF7F936F939F938F9382E292E09F933D
S11303C08F938CE292E09F938F93CE0101969F933B
S11303D08F93B5D089810FB6F894DEBF0FBECDBF21
S11303E0882349F08E010E5F1F4F9BDFF801819136
S11303F08F018111FACF80E197E282DFC05BDF4F8A
S11304000FB6F894DEBF0FBECDBFDF91CF911F9121
S11304100F910895CF93DF93CDB7DEB7E2970FB670
S1130420F894DEBF0FBECDBF7F936F939F938F93DE
S11304308AE392E09F938F938CE492E09F938F934F
S1130440CE0101969F938F937AD089810FB6F89449
S1130450DEBF0FBECDBF882321F063DF8981811108
S1130460FCCF8AEF90E04CDFE2960FB6F894DEBF43
S11304700FBECDBFDF91CF910895EF92FF920F93FE
S11304801F93CF93DF93CDB7DEB762970FB6F8947F
S1130490DEBF0FBECDBF7C017F936F9387E592E0F3
S11304A09F938F9383E692E09F938F93CE0101965F
S11304B09F938F9344D089810FB6F894DEBF0FBE0B
S11304C0CDBF882349F08E010E5F1F4F2ADFF8014C
S11304D081918F018111FACFF7018081882349F03E
S11304E087010F5F1F4F1DDFF80181918F0181117B
S11304F0FACF8AEF90E004DF62960FB6F894DEBF7D
S11305000FBECDBFDF91CF911F910F91FF90EF9060
S11305100895CF93DF93CBE6D2E081E402DF8991A3
S11305208111FCCF84E690E0EBDEDF91CF9108955A
S1130530FB01DC0101900D920020E1F708950F9377
S11305401F93CF93DF93CDB7DEB72E970FB6F894F2
S1130550DEBF0FBECDBF0D891E8986E08C831A8352
S113056009838FEF9FE79E838D83AE01475E5F4FC4
S11305706F89788DCE01019610D0EF81F885E00F58
S1130580F11F10822E960FB6F894DEBF0FBECDBFBA
S1130590DF91CF911F910F9108952F923F924F9227
S11305A05F926F927F928F929F92AF92BF92CF92FF
S11305B0DF92EF92FF920F931F93CF93DF93CDB708
S11305C0DEB72B970FB6F894DEBF0FBECDBF6C011C
S11305D07B018A01FC0117821682838181FFBFC1DE
S11305E0CE0101963C01F6019381F70193FD8591BB
S11305F093FF81917F01882309F4ADC1853239F4D9
S113060093FD859193FF81917F01853221F4B60199
S113061090E0D6D1E8CF912C212C312CFFE1F315B9
S1130620D8F08B3279F038F4803279F08332A1F447
S1130630232D20611DC08D3261F0803369F4232D98
S1130640216016C0832D8260382EE32DE4603E2E97
S11306502AC0F32DF8601DC037FC2DC020ED280FF3
S11306602A3040F08E32B9F436FC75C1232D206453
S1130670322E19C036FE06C08AE0989E200D112441
S1130680922E11C0EAE02E9E200D1124222EF32D6D
S1130690F0623F2E08C08C3621F4832D8068382EFA
S11306A002C0883641F4F70193FD859193FF81914F
S11306B07F018111B3CF982F9F7D9554933028F4F7
S11306C00C5F1F4F9FE399830DC0833631F083374E
S11306D071F0833509F055C020C0F8018081898309
S11306E00E5F1F4F88248394912C530112C028015C
S11306F0F2E04F0E511CF801A080B18036FE03C019
S1130700692D70E002C06FEF7FEFC5014ED14C013F
S11307108201F32DFF773F2E15C0280122E0420EFF
S1130720511CF801A080B18036FE03C0692D70E031
S113073002C06FEF7FEFC5012DD14C01F32DF0689E
S11307403F2E820133FC19C0822D90E08816990651
S1130750A0F4B60180E290E033D12A94F5CFF501FC
S113076037FC859137FE81915F01B60190E028D175
S113077021102A9421E0821A91088114910479F7B6
S1130780E1C0843611F0893639F5F80137FE07C027
S113079060817181828193810C5F1F4F08C06081E9
S11307A07181072E000C880B990B0E5F1F4FF32DE0
S11307B0FF763F2E97FF09C09095809570956195BF
S11307C07F4F8F4F9F4FF0683F2E2AE030E0A30108
S11307D033D1882E861844C0853731F4232D2F7EDB
S11307E0B22E2AE030E025C0932D997FB92E8F36A2
S11307F0C1F018F4883579F0AEC0803719F0883725
S113080021F0A9C0E92FE061BE2EB4FE0DC0FB2D7E
S1130810F460BF2E09C034FE0AC0292F2660B22E10
S113082006C028E030E005C020E130E002C020E14D
S113083032E0F801B7FE07C0608171818281938143
S11308400C5F1F4F06C06081718180E090E00E5FF5
S11308501F4FA301F1D0882E8618FB2DFF773F2E62
S113086036FE0DC0232D2E7FA22E891458F434FE9B
S11308700BC032FC09C0832D8E7EA82E05C0B82C77
S1130880A32C03C0B82C01C0B92CA4FE0FC0FE01D8
S1130890E80DF11D8081803321F49A2D997EA92ED3
S11308A009C0A2FE06C0B394B39404C08A2D86780E
S11308B009F0B394A3FC10C0A0FE06C0B21480F4E7
S11308C0280C922C9B180DC0B21458F4B60180E287
S11308D090E076D0B394F8CFB21418F42B1802C079
S11308E0982C212CA4FE0FC0B60180E390E068D0C0
S11308F0A2FE16C0A1FC03C088E790E002C088E510
S113090090E0B6010CC08A2D867851F0A1FE02C099
S11309108BE201C080E2A7FC8DE2B60190E050D0EA
S1130920891430F4B60180E390E04AD09A94F8CF69
S11309308A94F301E80DF11D8081B60190E040D066
S11309408110F6CF222009F44ECEB60180E290E069
S113095037D02A94F7CFF6018681978102C08FEFB2
S11309609FEF2B960FB6F894DEBF0FBECDBFDF917D
S1130970CF911F910F91FF90EF90DF90CF90BF9098
S1130980AF909F908F907F906F905F904F903F902B
S11309902F900895FC010590615070400110D8F724
S11309A0809590958E0F9F1F0895FC0161507040B3
S11309B001900110D8F7809590958E0F9F1F089590
S11309C00F931F93CF93DF93FB01238121FD03C07A
S11309D08FEF9FEF2CC022FF16C0468157812481E0
S11309E035814217530744F4A081B1819D012F5FE3
S11309F03F4F318320838C93268137812F5F3F4F74
S1130A003783268314C08B01EC01FB010084F1853C
S1130A10E02D0995892BE1F6D80116968D919C91CC
S1130A201797019617969C938E931697CE01DF9194
S1130A30CF911F910F910895FA01AA27283051F1FF
S1130A40203181F1E8946F936E7F6E5F7F4F8F4FFB
S1130A509F4FAF4FB1E03ED0B4E03CD0670F781F5A
S1130A60891F9A1FA11D680F791F8A1F911DA11D3F
S1130A706A0F711D811D911DA11D20D009F4689478
S1130A803F912AE0269F11243019305D3193DEF620
S1130A90CF010895462F4770405D4193B3E00FD0D6
S1130AA0C9F7F6CF462F4F70405D4A3318F0495DC1
S1130AB031FD4052419302D0A9F7EACFB4E0A695A4
S1130AC09795879577956795BA95C9F700976105C6
S1130AD0710508959B01AC010A2E0694579547951C
S1130AE037952795BA95C9F7620F731F841F951F11
S10B0AF0A01D0895F894FFCF46
S1130AF87B20226F6E223A2066616C7365207D002C
S1130B087B20226F6E223A2074727565207D000264
S1130B180D0A0D0A00436F6E74656E742D4C656E74
S1130B286774683A20004163636570742D456E6389
S1130B386F64696E673A20677A69700D0A000D0A56
S1130B48436F6E6E656374696F6E3A204B656570AA
S1130B582D416C6976650D0A003139322E313638EB
S1130B682E302E323300486F73743A2000436F6E70
S1130B7874656E742D547970653A206170706C696F
S1130B88636174696F6E2F6A736F6E0D0A00555333
S1130B9845525F4147454E543A204156522D4553DC
S1130BA8503832360D0A0020485454502F312E3113
S1130BB80D0A002F6170692F6E756C6C2F67726F48
S1130BC87570732F302F616374696F6E00505554BC
S1130BD820002573257325732573257325732573C1
S1130BE82573257325732564257325730049616E60
S1130BF87664706F6C6C004D6F746F2047202835D5
S1130C08532920506C757320333631370041540D05
S1130C180A0041542B43574A41503D00257322256D
S1130C2873222C222573220D0A0041542B43495068
S1130C3853544152543D22544350220025732C25C9
S1130C48732C25640D0A0041542B43495053454ED7
S1130C58443D00257325640D0A0041542B43495033
S10B0C68434C4F53450D0A00F3
S9030000FC
