S02B00004D6963726F20636F6E74726F6C6C6572732065696E646F7064726163687420576966692E7372656364
S113000045C0000058C0000056C0000054C00000A5
S113001052C0000050C000004EC000004CC00000A0
S11300204AC0000048C0000046C0000044C00000B0
S113003042C0000040C000003EC000003CC00000C0
S11300403AC0000038C0000036C0000034C00000D0
S113005032C0000030C000002EC000002CC00000E0
S11300602AC0000028C0000026C0000024C00000F0
S113007022C0000020C000001EC000001CC0000000
S11300801AC0000018C0000016C0000011241FBED2
S1130090CFEFD0E1DEBFCDBF11E0A0E0B1E0E2E4FC
S11300A0F2E000E00BBF02C007900D92A834B10744
S11300B0D9F752D0C4C0A4CFAB9A8FEC97E0019784
S11300C0F1F700C00000AB988FEC97E00197F1F7CF
S11300D000C000000895CF93C82F807F85BBECDF5C
S11300E020E1C29FC001112485BBE6DFCF910895B2
S11300F080E285BB85B382BBDFDF88E2ECDF8CE086
S1130100EADF81E0E8DF82E0E6DF15BA08950F93C5
S11301101F93CF93FC01C081CC23A1F08C010F5F0E
S11301201F4F8C2F807F85BBAA9AC6DFF0E1CF9F3B
S11301309001112425BBAA9ABFDFF801C1918F0158
S1130140C111EFCF15BACF911F910F91089581E09E
S1130150C2DF82E0C0CF08958FEF84BB15BAC8DF39
S113016001D0FFCFEF92FF921F93CF93DF9300D084
S113017000D000D0CDB7DEB71092900083E389B9E8
S11301808CE08AB986E080939500E1DF80E091E01D
S1130190BEDFEAE0F1E081E45D9BFECF8CB98191A2
S11301A08111FACF23C05F9BFECF1CB11E83CFDF2A
S11301B0812F90E0825F9E4FAADFBE016A5F7F4F6E
S11301C0CE01019628D081E0E81AF10861F767E1D1
S11301D071E0CE0101962AD0892B21F48AE191E0C5
S11301E096DF0DC088E291E092DF09C0B0DF8AE3B8
S11301F091E08DDF6894EE24E2F8F12CD4CF2696BA
S11302000FB6F894DEBF0FBECDBFDF91CF911F9123
S1130210FF90EF900895FB01DC010D900020E9F7B9
S1130220119701900D920020E1F70895FB01DC0184
S11302308D91019080190110D9F3990B0895F894C8
S1050240FFCFEA
S113024242617564696E69740041540D0A0020208C
S1130252427974653A20004F4B005769466920572A
S11302626F726B696E67210057694669206E6F74FD
S113027220576F726B696E67210053656E64206349
S10B02826F6D6D616E640000F4
S9030000FC
