S02B00004D6963726F20636F6E74726F6C6C6572732065696E646F7064726163687420576966692E7372656364
S113000045C0000058C0000056C0000054C00000A5
S113001052C0000050C000004EC000004CC00000A0
S11300204AC0000048C0000046C0000044C00000B0
S113003042C0000040C000003EC000003CC00000C0
S11300403AC0000038C0000036C0000034C00000D0
S113005032C0000030C000002EC000002CC00000E0
S11300602AC0000028C0000026C0000024C00000F0
S113007022C0000020C000001EC000001CC0000000
S11300801AC0000018C0000016C0000011241FBED2
S1130090CFEFD0E1DEBFCDBF11E0A0E0B1E0EEE3F1
S11300A0F1E000E00BBF02C007900D92A430B1074D
S11300B0D9F702D042C0A4CF01D0FFCF0F931F9332
S11300C0CF93DF9300D000D01F92CDB7DEB710924C
S11300D0900083E089B98CE08AB986E0809395002A
S11300E0E1E0F1E081E45D9BFECF8CB98191811167
S11300F0FACF03E010E05F9BFECF8CB18D83BE018D
S11301006B5F7F4FCE0101960DD00150110999F715
S11301100F900F900F900F900F90DF91CF911F9140
S11301200F910895FB01DC010D900020E9F7119770
S111013001900D920020E1F70895F894FFCF9E
S107013E4154000024
S9030000FC
