S02300004D6963726F20636F6E74726F6C6C657273205765656B20332042312E737265639E
S113000045C0000058C0000056C0000054C00000A5
S113001052C0000050C000004EC000004CC00000A0
S11300204AC0000048C0000046C0000044C00000B0
S113003042C0000040C000003EC000003CC00000C0
S11300403AC0000038C0000036C0000034C00000D0
S113005032C0000030C000002EC000002CC00000E0
S11300602AC0000028C0000026C0000024C00000F0
S113007022C0000020C000001EC000001CC0000000
S11300801AC0000018C0000016C0000011241FBED2
S1130090CFEFD0E1DEBFCDBF11E0A0E0B1E0EEE0F4
S11300A0F2E000E00BBF02C007900D92AA32B10744
S11300B0D9F790D0AAC0A4CFAB9A8FEC97E0019760
S11300C0F1F700C00000AB988FEC97E00197F1F7CF
S11300D000C000000895CF93C82F807F85BBECDF5C
S11300E020E1C29FC001112485BBE6DFCF910895B2
S11300F080E285BB85B382BBDFDF88E2ECDF8CE086
S1130100EADF81E0E8DF82E0E6DF15BA08950F93C5
S11301101F93CF93FC01C081CC23A1F08C010F5F0E
S11301201F4F8C2F807F85BBAA9AC6DFF0E1CF9F3B
S11301309001112425BBAA9ABFDFF801C1918F0158
S1130140C111EFCF15BACF911F910F9108950F935D
S11301501F93CF93DF938C0182E0BDDF101611064D
S113016044F4C0E0D0E084E1B6DF21960C171D070B
S1130170D1F715BADF91CF911F910F9108950F9385
S11301801F93CF93DF93181619064CF48C01C0E02B
S1130190D0E088E1A0DF21960C171D07D1F7DF918D
S11301A0CF911F910F91089581E095DF82E093CF65
S11301B00895181619066CF420E030E0EFECF7E02F
S11301C03197F1F700C000002F5F3F4F821793076C
S11301D0A9F708958FEF84BB15BA81BB81E082BB78
S11301E087DF82E090E0B3DF80E091E090DF80ED94
S11301F097E0DFDFD9DF8CE091E089DF81E090E0F8
S1110200BEDF8AE892E0D5DFF9CFF894FFCF95
S113020E68616C6C6F2048616C6C6F005765206D73
S113021E65657420616761696E206C756B6520730A
S10D022E6B7977616C6B6572000058
S9030000FC
