S02300004D6963726F20636F6E74726F6C6C657273207765656B20322042322E737265637E
S113000045C000004BC000004AC000005CC00000B6
S113001045C0000043C0000041C000003FC00000D4
S11300203DC000003BC0000039C0000037C00000E4
S113003035C0000033C0000031C000002FC00000F4
S11300402DC000002BC0000029C0000027C0000004
S113005025C0000023C0000021C000001FC0000014
S11300601DC000001BC0000019C0000017C0000024
S113007015C0000013C0000011C000000FC0000034
S11300800DC000000BC0000009C0000011241FBEF9
S1130090CFEFD0E1DEBFCDBF2AD042C0B1CF1F9297
S11300A00F920FB60F9211248F9385B3880F85BBDF
S11300B085B3811102C081E085BB8F910F900FBE83
S11300C00F901F9018951F920F920FB60F92112444
S11300D08F9385B3869585BB85B3811102C080E873
S11300E085BB8F910F900FBE0F901F90189580EFD6
S11300F081BB8FE082BB8FEF84BB81E085BBEAE6E6
S1130100F0E080818C63808389B7866089BF7894AE
S113011085B7806285BF889585B78F7D85BFF8CF09
S1070120F894FFCF7D
S9030000FC
