S02200004D6963726F20636F6E74726F6C6C657273207765656B203420432E73726563AE
S113000045C000004BC0000049C0000047C00000CC
S113001045C0000043C0000041C000003FC00000D4
S11300203DC000003BC0000039C0000037C00000E4
S113003035C0000033C0000031C000002FC00000F4
S11300402DC000002BC0000029C0000027C0000004
S113005025C0000023C0000021C000001FC0000014
S11300601DC000001BC0000019C0000017C0000024
S113007015C0000013C0000011C000000FC0000034
S11300800DC000000BC0000009C0000011241FBEF9
S1130090CFEFD0E1DEBFCDBF6ED092C0B1CF181686
S11300A019066CF420E030E0EFECF7E03197F1F75B
S11300B000C000002F5F3F4F82179307A9F70895F0
S11300C08FEF87BBBB98C09A82E58DB908958FB92D
S11300D0779BFECF089598B321E030E002C0220F51
S11300E0331F8A95E2F72095292328BB089598B3F6
S11300F021E030E002C0220F331F8A95E2F7292B5A
S113010028BB089580E0E7DF89E0E1DF8FEFDFDFE0
S113011080E0EDDF80E0DFDF8AE0D9DF84E0D7DF55
S113012080E0E5DF80E0D7DF8BE0D1DF83E0CFDF65
S113013080E0DDDF80E0CFDF8CE0C9DF81E0C7DF76
S113014080E0D5CF089580E0C6DF8AE0C0DF8FE08D
S1130150BEDF80E0CCCF0895CF93DF93D82FC62F96
S113016080E0B9DF8D2FB3DF8C2FB1DF80E0BFDFFC
S1130170DF91CF910895CF93DF9381E087BBA0DF18
S1130180C1DFE1DFC1E060E08C2FE6DFCF5FC53087
S1130190D1F788EE93E083DFC1E0D5E06D2F6C1BCF
S11301A08C2FDADF88EE93E07ADFCF5FC530B1F7CA
S11301B088EE93E074DF81E090E0DF91CF910895C1
S10701C0F894FFCFDD
S9030000FC
