S02300004D6963726F20636F6E74726F6C6C657273207765656B20322042332E737265637D
S113000045C0000065C0000077C000004FC000007C
S11300104DC000004BC0000049C0000047C00000B4
S113002045C0000043C0000041C000003FC00000C4
S11300303DC000003BC0000039C0000037C00000D4
S113004035C0000033C0000031C000002FC00000E4
S11300502DC000002BC0000029C0000027C00000F4
S113006025C0000023C0000021C000001FC0000004
S11300701DC000001BC0000019C0000017C0000014
S113008015C0000013C0000011C0000011241FBEE1
S1130090CFEFD0E1DEBFCDBF21E0A0E0B1E001C0F1
S11300A01D92A330B207E1F742D071C0A9CF181650
S11300B019066CF420E030E0EFECF7E03197F1F74B
S11300C000C000002F5F3F4F82179307A9F70895E0
S11300D01F920F920FB60F9211248F9381E0809399
S11300E00201809100018F5F809300018F910F9036
S11300F00FBE0F901F9018951F920F920FB60F927C
S113010011248F9381E0809301018091000181503B
S1130110809300018F910F900FBE0F901F90189540
S1130120803118F089E785BB089585BB08958FEF6A
S113013084BB87E085BB11BA12BA8FE080936A0052
S113014083E089BF789488EC90E0B1DFF8948091E3
S11301500001789490910201992361F0909101013A
S1130160992341F0109200011092020110920101B2
S113017080E004C01092020110920101D1DF85B722
S1130180806285BF889585B78F7D85BFDCCFF89465
S1050190FFCF9B
S9030000FC
